{
  "contractName": "LiquidPledging",
  "abi": [
    {
      "constant": false,
      "inputs": [
        {
          "name": "idDelegate",
          "type": "uint64"
        },
        {
          "name": "newAddr",
          "type": "address"
        },
        {
          "name": "newName",
          "type": "string"
        },
        {
          "name": "newCommitTime",
          "type": "uint64"
        }
      ],
      "name": "updateDelegate",
      "outputs": [],
      "payable": false,
      "type": "function"
    },
    {
      "constant": false,
      "inputs": [
        {
          "name": "name",
          "type": "string"
        },
        {
          "name": "commitTime",
          "type": "uint64"
        },
        {
          "name": "plugin",
          "type": "address"
        }
      ],
      "name": "addDelegate",
      "outputs": [
        {
          "name": "idDelegate",
          "type": "uint64"
        }
      ],
      "payable": false,
      "type": "function"
    },
    {
      "constant": true,
      "inputs": [
        {
          "name": "projectId",
          "type": "uint64"
        }
      ],
      "name": "isProjectCanceled",
      "outputs": [
        {
          "name": "",
          "type": "bool"
        }
      ],
      "payable": false,
      "type": "function"
    },
    {
      "constant": false,
      "inputs": [
        {
          "name": "idNote",
          "type": "uint64"
        }
      ],
      "name": "normalizeNote",
      "outputs": [
        {
          "name": "",
          "type": "uint64"
        }
      ],
      "payable": false,
      "type": "function"
    },
    {
      "constant": false,
      "inputs": [
        {
          "name": "idNote",
          "type": "uint64"
        },
        {
          "name": "amount",
          "type": "uint256"
        }
      ],
      "name": "confirmPayment",
      "outputs": [],
      "payable": false,
      "type": "function"
    },
    {
      "constant": false,
      "inputs": [
        {
          "name": "idDonor",
          "type": "uint64"
        },
        {
          "name": "newAddr",
          "type": "address"
        },
        {
          "name": "newName",
          "type": "string"
        },
        {
          "name": "newCommitTime",
          "type": "uint64"
        }
      ],
      "name": "updateDonor",
      "outputs": [],
      "payable": false,
      "type": "function"
    },
    {
      "constant": false,
      "inputs": [
        {
          "name": "idNote",
          "type": "uint64"
        },
        {
          "name": "amount",
          "type": "uint256"
        }
      ],
      "name": "withdraw",
      "outputs": [],
      "payable": false,
      "type": "function"
    },
    {
      "constant": false,
      "inputs": [
        {
          "name": "idSender",
          "type": "uint64"
        },
        {
          "name": "idNote",
          "type": "uint64"
        },
        {
          "name": "amount",
          "type": "uint256"
        },
        {
          "name": "idReceiver",
          "type": "uint64"
        }
      ],
      "name": "transfer",
      "outputs": [],
      "payable": false,
      "type": "function"
    },
    {
      "constant": false,
      "inputs": [
        {
          "name": "notesAmounts",
          "type": "uint256[]"
        }
      ],
      "name": "mWithdraw",
      "outputs": [],
      "payable": false,
      "type": "function"
    },
    {
      "constant": true,
      "inputs": [],
      "name": "numberOfNotes",
      "outputs": [
        {
          "name": "",
          "type": "uint256"
        }
      ],
      "payable": false,
      "type": "function"
    },
    {
      "constant": false,
      "inputs": [
        {
          "name": "idProject",
          "type": "uint64"
        }
      ],
      "name": "cancelProject",
      "outputs": [],
      "payable": false,
      "type": "function"
    },
    {
      "constant": false,
      "inputs": [
        {
          "name": "idNote",
          "type": "uint64"
        },
        {
          "name": "amount",
          "type": "uint256"
        }
      ],
      "name": "cancelNote",
      "outputs": [],
      "payable": false,
      "type": "function"
    },
    {
      "constant": true,
      "inputs": [
        {
          "name": "idNote",
          "type": "uint64"
        },
        {
          "name": "idxDelegate",
          "type": "uint256"
        }
      ],
      "name": "getNoteDelegate",
      "outputs": [
        {
          "name": "idDelegate",
          "type": "uint64"
        },
        {
          "name": "addr",
          "type": "address"
        },
        {
          "name": "name",
          "type": "string"
        }
      ],
      "payable": false,
      "type": "function"
    },
    {
      "constant": false,
      "inputs": [
        {
          "name": "notesAmounts",
          "type": "uint256[]"
        }
      ],
      "name": "mConfirmPayment",
      "outputs": [],
      "payable": false,
      "type": "function"
    },
    {
      "constant": true,
      "inputs": [
        {
          "name": "idManager",
          "type": "uint64"
        }
      ],
      "name": "getNoteManager",
      "outputs": [
        {
          "name": "managerType",
          "type": "uint8"
        },
        {
          "name": "addr",
          "type": "address"
        },
        {
          "name": "name",
          "type": "string"
        },
        {
          "name": "commitTime",
          "type": "uint64"
        },
        {
          "name": "parentProject",
          "type": "uint64"
        },
        {
          "name": "canceled",
          "type": "bool"
        },
        {
          "name": "plugin",
          "type": "address"
        }
      ],
      "payable": false,
      "type": "function"
    },
    {
      "constant": false,
      "inputs": [
        {
          "name": "notes",
          "type": "uint256[]"
        }
      ],
      "name": "mNormalizeNote",
      "outputs": [
        {
          "name": "",
          "type": "uint64"
        }
      ],
      "payable": false,
      "type": "function"
    },
    {
      "constant": false,
      "inputs": [
        {
          "name": "idProject",
          "type": "uint64"
        },
        {
          "name": "newAddr",
          "type": "address"
        },
        {
          "name": "newName",
          "type": "string"
        },
        {
          "name": "newCommitTime",
          "type": "uint64"
        }
      ],
      "name": "updateProject",
      "outputs": [],
      "payable": false,
      "type": "function"
    },
    {
      "constant": false,
      "inputs": [
        {
          "name": "name",
          "type": "string"
        },
        {
          "name": "projectManager",
          "type": "address"
        },
        {
          "name": "parentProject",
          "type": "uint64"
        },
        {
          "name": "commitTime",
          "type": "uint64"
        },
        {
          "name": "plugin",
          "type": "address"
        }
      ],
      "name": "addProject",
      "outputs": [
        {
          "name": "idProject",
          "type": "uint64"
        }
      ],
      "payable": false,
      "type": "function"
    },
    {
      "constant": false,
      "inputs": [
        {
          "name": "idDonor",
          "type": "uint64"
        },
        {
          "name": "idReceiver",
          "type": "uint64"
        }
      ],
      "name": "donate",
      "outputs": [],
      "payable": true,
      "type": "function"
    },
    {
      "constant": true,
      "inputs": [],
      "name": "numberOfNoteManagers",
      "outputs": [
        {
          "name": "",
          "type": "uint256"
        }
      ],
      "payable": false,
      "type": "function"
    },
    {
      "constant": false,
      "inputs": [
        {
          "name": "name",
          "type": "string"
        },
        {
          "name": "commitTime",
          "type": "uint64"
        },
        {
          "name": "plugin",
          "type": "address"
        }
      ],
      "name": "addDonor",
      "outputs": [
        {
          "name": "idDonor",
          "type": "uint64"
        }
      ],
      "payable": false,
      "type": "function"
    },
    {
      "constant": true,
      "inputs": [
        {
          "name": "idNote",
          "type": "uint64"
        }
      ],
      "name": "getNote",
      "outputs": [
        {
          "name": "amount",
          "type": "uint256"
        },
        {
          "name": "owner",
          "type": "uint64"
        },
        {
          "name": "nDelegates",
          "type": "uint64"
        },
        {
          "name": "proposedProject",
          "type": "uint64"
        },
        {
          "name": "commitTime",
          "type": "uint64"
        },
        {
          "name": "oldNote",
          "type": "uint64"
        },
        {
          "name": "paymentState",
          "type": "uint8"
        }
      ],
      "payable": false,
      "type": "function"
    },
    {
      "constant": false,
      "inputs": [
        {
          "name": "idSender",
          "type": "uint64"
        },
        {
          "name": "notesAmounts",
          "type": "uint256[]"
        },
        {
          "name": "idReceiver",
          "type": "uint64"
        }
      ],
      "name": "mTransfer",
      "outputs": [],
      "payable": false,
      "type": "function"
    },
    {
      "constant": false,
      "inputs": [
        {
          "name": "idNote",
          "type": "uint64"
        },
        {
          "name": "amount",
          "type": "uint256"
        }
      ],
      "name": "cancelPayment",
      "outputs": [],
      "payable": false,
      "type": "function"
    },
    {
      "constant": false,
      "inputs": [
        {
          "name": "notesAmounts",
          "type": "uint256[]"
        }
      ],
      "name": "mCancelPayment",
      "outputs": [],
      "payable": false,
      "type": "function"
    },
    {
      "constant": true,
      "inputs": [
        {
          "name": "projectId",
          "type": "uint64"
        }
      ],
      "name": "isProjectCanceled2",
      "outputs": [
        {
          "name": "",
          "type": "bool"
        }
      ],
      "payable": false,
      "type": "function"
    },
    {
      "constant": true,
      "inputs": [],
      "name": "vault",
      "outputs": [
        {
          "name": "",
          "type": "address"
        }
      ],
      "payable": false,
      "type": "function"
    },
    {
      "inputs": [
        {
          "name": "_vault",
          "type": "address"
        }
      ],
      "payable": false,
      "type": "constructor"
    },
    {
      "anonymous": false,
      "inputs": [
        {
          "indexed": true,
          "name": "from",
          "type": "uint64"
        },
        {
          "indexed": true,
          "name": "to",
          "type": "uint64"
        },
        {
          "indexed": false,
          "name": "amount",
          "type": "uint256"
        }
      ],
      "name": "Transfer",
      "type": "event"
    },
    {
      "anonymous": false,
      "inputs": [
        {
          "indexed": true,
          "name": "idDonor",
          "type": "uint64"
        }
      ],
      "name": "DonorAdded",
      "type": "event"
    },
    {
      "anonymous": false,
      "inputs": [
        {
          "indexed": true,
          "name": "idDonor",
          "type": "uint64"
        }
      ],
      "name": "DonorUpdated",
      "type": "event"
    },
    {
      "anonymous": false,
      "inputs": [
        {
          "indexed": true,
          "name": "idDelegate",
          "type": "uint64"
        }
      ],
      "name": "DelegateAdded",
      "type": "event"
    },
    {
      "anonymous": false,
      "inputs": [
        {
          "indexed": true,
          "name": "idDelegate",
          "type": "uint64"
        }
      ],
      "name": "DelegateUpdated",
      "type": "event"
    },
    {
      "anonymous": false,
      "inputs": [
        {
          "indexed": true,
          "name": "idProject",
          "type": "uint64"
        }
      ],
      "name": "ProjectAdded",
      "type": "event"
    },
    {
      "anonymous": false,
      "inputs": [
        {
          "indexed": true,
          "name": "idManager",
          "type": "uint64"
        }
      ],
      "name": "ProjectUpdated",
      "type": "event"
    }
  ],
  "bytecode": "0x606060405234156200001057600080fd5b6040516020806200480f833981016040528080519150505b805b60016200003881806200006e565b50600162000048600082620000a3565b5060028054600160a060020a031916600160a060020a0383161790555b505b5062000249565b8154818355818115116200009d576004028160040283600052602060002091820191016200009d9190620000d8565b5b505050565b8154818355818115116200009d576004028160040283600052602060002091820191016200009d91906200013c565b5b505050565b6200013991905b8082111562000135578054600160a860020a03191681556000620001076001830182620001ae565b506002810180546001608860020a0319169055600381018054600160a060020a0319169055600401620000df565b5090565b90565b6200013991905b808211156200013557600080825560018201805467ffffffffffffffff19169055620001736002830182620001fa565b506003810180547fffffffffffffff0000000000000000000000000000000000000000000000000016905560040162000143565b5090565b90565b50805460018160011615610100020316600290046000825580601f10620001d65750620001f6565b601f016020900490600052602060002090810190620001f6919062000225565b5b50565b508054600082556003016004900490600052602060002090810190620001f6919062000225565b5b50565b6200013991905b808211156200013557600081556001016200022c565b5090565b90565b6145b680620002596000396000f300606060405236156101435763ffffffff60e060020a60003504166313734d8781146101485780631e215648146101c35780632101a6ad1461024957806322ec902c1461027c5780632ee88808146102b7578063424e3796146102db578063433879831461035657806347c5ef431461037a57806357adafb6146103ab57806374653bcb146103fc578063796d5654146104215780637d0e6d171461044257806391090937146104665780639398f5a2146105205780639834bf2f14610571578063a37439991461065d578063b165af41146106c8578063b9d82bd714610743578063bde60ac9146107d9578063c40b51fd146107f5578063cb199fa41461081a578063cb9123ff146108a0578063d639cd731461091e578063e9c211e214610988578063ef3766e4146109ac578063f5184705146109fd578063fbfa77cf14610a30575b600080fd5b341561015357600080fd5b6101c1600480356001604060020a03169060248035600160a060020a0316919060649060443590810190830135806020601f82018190048102016040519081016040528181529291906020840183838082843750949650505092356001604060020a03169250610a5f915050565b005b34156101ce57600080fd5b61022d60046024813581810190830135806020601f82018190048102016040519081016040528181529291906020840183838082843750949650505083356001604060020a03169360200135600160a060020a03169250610b35915050565b6040516001604060020a03909116815260200160405180910390f35b341561025457600080fd5b6102686001604060020a0360043516610d02565b604051901515815260200160405180910390f35b341561028757600080fd5b61022d6001604060020a0360043516610db4565b6040516001604060020a03909116815260200160405180910390f35b34156102c257600080fd5b6101c16001604060020a0360043516602435610f80565b005b34156102e657600080fd5b6101c1600480356001604060020a03169060248035600160a060020a0316919060649060443590810190830135806020601f82018190048102016040519081016040528181529291906020840183838082843750949650505092356001604060020a031692506110c6915050565b005b341561036157600080fd5b6101c16001604060020a036004351660243561119c565b005b341561038557600080fd5b6101c16001604060020a03600435811690602435811690604435906064351661149e565b005b34156103b657600080fd5b6101c16004602481358181019083013580602081810201604051908101604052809392919081815260200183836020028082843750949650611a9c95505050505050565b005b341561040757600080fd5b61040f611b0f565b60405190815260200160405180910390f35b341561042c57600080fd5b6101c16001604060020a0360043516611b1a565b005b341561044d57600080fd5b6101c16001604060020a0360043516602435611c9e565b005b341561047157600080fd5b6104886001604060020a0360043516602435611e49565b6040516001604060020a0384168152600160a060020a038316602082015260606040820181815290820183818151815260200191508051906020019080838360005b838110156104e35780820151818401525b6020016104ca565b50505050905090810190601f1680156105105780820380516001836020036101000a031916815260200191505b5094505050505060405180910390f35b341561052b57600080fd5b6101c16004602481358181019083013580602081810201604051908101604052809392919081815260200183836020028082843750949650611f7095505050505050565b005b341561057c57600080fd5b6105906001604060020a0360043516611fe3565b604051808860028111156105a057fe5b60ff168152600160a060020a0388811660208301526001604060020a0387811660608401528616608083015284151560a0830152831660c082015260e0828203810160408301908152910187818151815260200191508051906020019080838360005b8381101561061c5780820151818401525b602001610603565b50505050905090810190601f1680156106495780820380516001836020036101000a031916815260200191505b509850505050505050505060405180910390f35b341561066857600080fd5b61022d600460248135818101908301358060208181020160405190810160405280939291908181526020018383602002808284375094965061210295505050505050565b6040516001604060020a03909116815260200160405180910390f35b34156106d357600080fd5b6101c1600480356001604060020a03169060248035600160a060020a0316919060649060443590810190830135806020601f82018190048102016040519081016040528181529291906020840183838082843750949650505092356001604060020a0316925061214f915050565b005b341561074e57600080fd5b61022d60046024813581810190830135806020601f8201819004810201604051908101604052818152929190602084018383808284375094965050600160a060020a0385358116956001604060020a036020820135811696506040820135169450606001351691506122259050565b6040516001604060020a03909116815260200160405180910390f35b6101c16001604060020a03600435811690602435166125ad565b005b341561080057600080fd5b61040f612834565b60405190815260200160405180910390f35b341561082557600080fd5b61022d60046024813581810190830135806020601f82018190048102016040519081016040528181529291906020840183838082843750949650505083356001604060020a03169360200135600160a060020a0316925061283f915050565b6040516001604060020a03909116815260200160405180910390f35b34156108ab57600080fd5b6108bf6001604060020a0360043516612a0c565b6040518781526001604060020a038088166020830152868116604083015285811660608301528481166080830152831660a082015260c0810182600281111561090457fe5b60ff16815260200197505050505050505060405180910390f35b341561092957600080fd5b6101c1600480356001604060020a0316906044602480359081019083013580602080820201604051908101604052809392919081815260200183836020028082843750949650505092356001604060020a03169250612a79915050565b005b341561099357600080fd5b6101c16001604060020a0360043516602435612af0565b005b34156109b757600080fd5b6101c16004602481358181019083013580602081810201604051908101604052809392919081815260200183836020028082843750949650612c1a95505050505050565b005b3415610a0857600080fd5b6102686001604060020a0360043516612c8d565b604051901515815260200160405180910390f35b3415610a3b57600080fd5b610a43612d45565b604051600160a060020a03909116815260200160405180910390f35b6000610a6a85612d54565b905060015b815460ff166002811115610a7f57fe5b14610a8957600080fd5b805433600160a060020a039081166101009092041614610aa857600080fd5b805461010060a860020a031916610100600160a060020a0386160217815560018101838051610adb9291602001906141a3565b5060028101805467ffffffffffffffff19166001604060020a038481169190911790915585167f01a3bd608e7be74358498f90bd2ff305f9fdb8e94d76167f40fef03aae56620360405160405180910390a25b5050505050565b600180549081808201610b488382614222565b916000526020600020906004020160005b60e06040519081016040528060015b8152600160a060020a033381166020830152604082018a90526001604060020a038916606083015260006080830181905260a0830152871660c09091015291905081518154829060ff19166001836002811115610bc157fe5b021790555060208201518154600160a060020a03919091166101000261010060a860020a0319909116178155604082015181600101908051610c079291602001906141a3565b50606082015160028201805467ffffffffffffffff19166001604060020a039290921691909117905560808201518160020160086101000a8154816001604060020a0302191690836001604060020a0316021790555060a0820151600282018054911515608060020a0270ff000000000000000000000000000000001990921691909117905560c0820151600391909101805473ffffffffffffffffffffffffffffffffffffffff1916600160a060020a0390921691909117905550506001604060020a0381167f014882843f1e57bd41e0826ad1cd5e6180d4d4f76df8b12edc8b44575322d94e60405160405180910390a25b9392505050565b600080610d0e83612d54565b905060005b815460ff166002811115610d2357fe5b1415610d325760009150610dae565b60025b815460ff166002811115610d4557fe5b14610d4c57fe5b6002810154608060020a900460ff1615610d695760019150610dae565b6002810154604060020a90046001604060020a03161515610d8d5760009150610dae565b6002810154610dab90604060020a90046001604060020a0316610d02565b91505b50919050565b600080600080610dc385612d9f565b925060005b600384015460c060020a900460ff166002811115610de257fe5b14610def57849350610f78565b600383015460006001604060020a03909116118015610e2857506003830154604060020a90046001604060020a0316610e26612de8565b115b15610f46576001830154600284018054610ee5926001604060020a03169190602080820201604051908101604052809291908181526020018280548015610ec057602002820191906000526020600020906000905b82829054906101000a90046001604060020a03166001604060020a031681526020019060080190602082600701049283019260010382029150808411610e7d5790505b505050506003870154600091508190608060020a90046001604060020a031681612ded565b6003840154909250610f26906001604060020a03166000604051805910610f095750595b908082528060200260200182016040525b50600080866000612ded565b9050610f37858285600001546130df565b809450610f4385612d9f565b92505b610f4f856131a9565b90506001604060020a0380821690861614610f7357610f73858285600001546130df565b5b8093505b505050919050565b600254600090819033600160a060020a03908116911614610fa057600080fd5b610fa984612d9f565b915060015b600383015460c060020a900460ff166002811115610fc857fe5b14610fd257600080fd5b836001604060020a0316610fe5856131a9565b6001604060020a031614610ff857600080fd5b60018201546002830180546110b1926001604060020a0316919060208082020160405190810160405280929190818152602001828054801561108b57602002820191906000526020600020906000905b82829054906101000a90046001604060020a03166001604060020a0316815260200190600801906020826007010492830192600103820291508084116110485790505b505050506003860154600091508190608060020a90046001604060020a03166002612ded565b90506110be8482856130df565b5b5b50505050565b60006110d185612d54565b905060005b815460ff1660028111156110e657fe5b146110f057600080fd5b805433600160a060020a03908116610100909204161461110f57600080fd5b805461010060a860020a031916610100600160a060020a03861602178155600181018380516111429291602001906141a3565b5060028101805467ffffffffffffffff19166001604060020a038481169190911790915585167f4328d70c188988fd55d2d7f624cbf5d070fbd36696af297439ce03612786cdc560405160405180910390a25b5050505050565b60008060006111aa85610db4565b94506111b585612d9f565b925060005b600384015460c060020a900460ff1660028111156111d457fe5b146111de57600080fd5b60018301546111f5906001604060020a0316612d54565b91506113478260e06040519081016040528154909190829060ff16600281111561121b57fe5b600281111561122657fe5b81526020016000820160019054906101000a9004600160a060020a0316600160a060020a0316600160a060020a03168152602001600182018054600181600116156101000203166002900480601f0160208091040260200160405190810160405280929190818152602001828054600181600116156101000203166002900480156112f25780601f106112c7576101008083540402835291602001916112f2565b820191906000526020600020905b8154815290600101906020018083116112d557829003601f168201915b505050918352505060028201546001604060020a038082166020840152604060020a8204166040830152608060020a900460ff1615156060820152600390910154600160a060020a0316608090910152613273565b6001830154600284018054611400926001604060020a031691906020808202016040519081016040528092919081815260200182805480156113da57602002820191906000526020600020906000905b82829054906101000a90046001604060020a03166001604060020a0316815260200190600801906020826007010492830192600103820291508084116113975790505b505050506003870154600091508190608060020a90046001604060020a03166001612ded565b905061140d8582866130df565b6002548254600160a060020a039182169163bb4f28df916001604060020a03851691610100909104168760405160e060020a63ffffffff86160281526004810193909352600160a060020a0390911660248301526044820152606401600060405180830381600087803b151561148257600080fd5b6102c65a03f1151561149357600080fd5b5050505b5050505050565b60008060008060006114af88610db4565b97506114ba88612d9f565b94506114c586612d54565b93506114d089612d54565b92506116228360e06040519081016040528154909190829060ff16600281111561121b57fe5b600281111561122657fe5b81526020016000820160019054906101000a9004600160a060020a0316600160a060020a0316600160a060020a03168152602001600182018054600181600116156101000203166002900480601f0160208091040260200160405190810160405280929190818152602001828054600181600116156101000203166002900480156112f25780601f106112c7576101008083540402835291602001916112f2565b820191906000526020600020905b8154815290600101906020018083116112d557829003601f168201915b505050918352505060028201546001604060020a038082166020840152604060020a8204166040830152608060020a900460ff1615156060820152600390910154600160a060020a0316608090910152613273565b60005b600386015460c060020a900460ff16600281111561163f57fe5b1461164957600080fd5b60018501546001604060020a038a8116911614156116e65760005b845460ff16600281111561167457fe5b141561168a576116858888886132bb565b6116de565b60025b845460ff16600281111561169d57fe5b14156116b357611685888888613301565b6116de565b60015b845460ff1660028111156116c657fe5b14156116dc5761168588888861354d565b6116de565bfe5b5b5b5b611a90565b6118178560e06040519081016040529081600082015481526020016001820160009054906101000a90046001604060020a03166001604060020a03166001604060020a03168152602001600282018054806020026020016040519081016040528092919081815260200182805480156117b057602002820191906000526020600020906000905b82829054906101000a90046001604060020a03166001604060020a03168152602001906008019060208260070104928301926001038202915080841161176d5790505b505050918352505060038201546001604060020a038082166020840152604060020a820481166040840152608060020a820416606083015260809091019060c060020a900460ff16600281111561180357fe5b600281111561180e57fe5b9052508a613681565b6001604060020a03908116925082146116dc5760005b845460ff16600281111561183d57fe5b14156118735760018501546001604060020a0387811691161461185c57fe5b6116de888887600201805490506136e8565b611a90565b60015b845460ff16600281111561188657fe5b1415611a4d576119bd8560e06040519081016040529081600082015481526020016001820160009054906101000a90046001604060020a03166001604060020a03166001604060020a031681526020016002820180548060200260200160405190810160405280929190818152602001828054801561195657602002820191906000526020600020906000905b82829054906101000a90046001604060020a03166001604060020a0316815260200190600801906020826007010492830192600103820291508084116119135790505b505050918352505060038201546001604060020a038082166020840152604060020a820481166040840152608060020a820416606083015260809091019060c060020a900460ff1660028111156119a957fe5b60028111156119b457fe5b90525087613681565b6001604060020a0390811691508114156119f8576119e88888600185896002018054905003036136e8565b61168588888861354d565b6116de565b81811115611a27576119e88888600185896002018054905003036136e8565b61168588888861354d565b6116de565b8181116116de576116de8888600184896002018054905003036136e8565b5b5b5b611a90565b60025b845460ff166002811115611a6057fe5b14156116dc57611a7d8888600185896002018054905003036136e8565b6116de8888886137ee565b611a90565b5bfe5b5b505050505050505050565b600080805b83518310156110be576001604060020a03848481518110611abe57fe5b90602001906020020151169150604060020a848481518110611adc57fe5b90602001906020020151811515611aef57fe5b049050611afc828261119c565b5b600190920191611aa1565b5b50505050565b600054600019015b90565b6000611b2582612d54565b9050611c778160e06040519081016040528154909190829060ff16600281111561121b57fe5b600281111561122657fe5b81526020016000820160019054906101000a9004600160a060020a0316600160a060020a0316600160a060020a03168152602001600182018054600181600116156101000203166002900480601f0160208091040260200160405190810160405280929190818152602001828054600181600116156101000203166002900480156112f25780601f106112c7576101008083540402835291602001916112f2565b820191906000526020600020905b8154815290600101906020018083116112d557829003601f168201915b505050918352505060028201546001604060020a038082166020840152604060020a8204166040830152608060020a900460ff1615156060820152600390910154600160a060020a0316608090910152613273565b60028101805470ff000000000000000000000000000000001916608060020a1790555b5050565b600080611caa84610db4565b9350611cb584612d9f565b6001810154909250611ccf906001604060020a0316612d54565b9050611e218160e06040519081016040528154909190829060ff16600281111561121b57fe5b600281111561122657fe5b81526020016000820160019054906101000a9004600160a060020a0316600160a060020a0316600160a060020a03168152602001600182018054600181600116156101000203166002900480601f0160208091040260200160405190810160405280929190818152602001828054600181600116156101000203166002900480156112f25780601f106112c7576101008083540402835291602001916112f2565b820191906000526020600020905b8154815290600101906020018083116112d557829003601f168201915b505050918352505060028201546001604060020a038082166020840152604060020a8204166040830152608060020a900460ff1615156060820152600390910154600160a060020a0316608090910152613273565b60038201546110be908590608060020a90046001604060020a0316856130df565b5b50505050565b600080611e546142d3565b600080611e6087612d9f565b91508160020160018703815481101515611e7657fe5b90600052602060002090600491828204019190066008025b9054906101000a90046001604060020a03169450611eab85612d54565b90508060000160019054906101000a9004600160a060020a03169350806001018054600181600116156101000203166002900480601f016020809104026020016040519081016040528092919081815260200182805460018160011615610100020316600290048015611f5f5780601f10611f3457610100808354040283529160200191611f5f565b820191906000526020600020905b815481529060010190602001808311611f4257829003601f168201915b505050505092505b50509250925092565b600080805b83518310156110be576001604060020a03848481518110611f9257fe5b90602001906020020151169150604060020a848481518110611fb057fe5b90602001906020020151811515611fc357fe5b049050611fd08282610f80565b5b600190920191611f75565b5b50505050565b600080611fee6142d3565b6000806000806000611fff89612d54565b80546001808301805460ff84169c5061010093849004600160a060020a03169b509394509260029181161590920260001901909116046020601f820181900481020160405190810160405280929190818152602001828054600181600116156101000203166002900480156120b55780601f1061208a576101008083540402835291602001916120b5565b820191906000526020600020905b81548152906001019060200180831161209857829003601f168201915b50505050600283015460038401549298506001604060020a038082169850604060020a8204169650608060020a900460ff16945050600160a060020a031691505b50919395979092949650565b600080805b8351821015612147576001604060020a0384838151811061212457fe5b9060200190602002015116905061213a81610db4565b505b600190910190612107565b5b5050919050565b600061215a85612d54565b905060025b815460ff16600281111561216f57fe5b1461217957600080fd5b805433600160a060020a03908116610100909204161461219857600080fd5b805461010060a860020a031916610100600160a060020a03861602178155600181018380516121cb9291602001906141a3565b5060028101805467ffffffffffffffff19166001604060020a038481169190911790915585167f035196d5942819024277421e936a2e76840abb7bb5a320924ce0a9826daeba4460405160405180910390a25b5050505050565b6000806001604060020a038516156123da5761224085612d54565b905060025b815460ff16600281111561225557fe5b1461225f57600080fd5b805433600160a060020a03908116610100909204161461227e57600080fd5b60146123d08260e06040519081016040528154909190829060ff1660028111156122a457fe5b60028111156122af57fe5b81526020016000820160019054906101000a9004600160a060020a0316600160a060020a0316600160a060020a03168152602001600182018054600181600116156101000203166002900480601f01602080910402602001604051908101604052809291908181526020018280546001816001161561010002031660029004801561237b5780601f106123505761010080835404028352916020019161237b565b820191906000526020600020905b81548152906001019060200180831161235e57829003601f168201915b505050918352505060028201546001604060020a038082166020840152604060020a8204166040830152608060020a900460ff1615156060820152600390910154600160a060020a0316608090910152613b3d565b106123da57600080fd5b5b600180549250828082016123ef8382614222565b916000526020600020906004020160005b60e06040519081016040528060025b8152600160a060020a03808c166020830152604082018d90526001604060020a03808b1660608401528b166080830152600060a0830152881660c09091015291905081518154829060ff1916600183600281111561246957fe5b021790555060208201518154600160a060020a03919091166101000261010060a860020a03199091161781556040820151816001019080516124af9291602001906141a3565b50606082015160028201805467ffffffffffffffff19166001604060020a039290921691909117905560808201518160020160086101000a8154816001604060020a0302191690836001604060020a0316021790555060a0820151600282018054911515608060020a0270ff000000000000000000000000000000001990921691909117905560c0820151600391909101805473ffffffffffffffffffffffffffffffffffffffff1916600160a060020a0390921691909117905550506001604060020a0382167fd7db7003e8f35149eda3d3685c2ab151ee561ad34853fdb0f4d7ecb33fff889060405160405180910390a25b5095945050505050565b60008080806001604060020a03861615156125e2576125df602060405190810160405260008082526203f4809061283f565b95505b6125eb86612d54565b935061273d8460e06040519081016040528154909190829060ff16600281111561121b57fe5b600281111561122657fe5b81526020016000820160019054906101000a9004600160a060020a0316600160a060020a0316600160a060020a03168152602001600182018054600181600116156101000203166002900480601f0160208091040260200160405190810160405280929190818152602001828054600181600116156101000203166002900480156112f25780601f106112c7576101008083540402835291602001916112f2565b820191906000526020600020905b8154815290600101906020018083116112d557829003601f168201915b505050918352505060028201546001604060020a038082166020840152604060020a8204166040830152608060020a900460ff1615156060820152600390910154600160a060020a0316608090910152613273565b60005b845460ff16600281111561275057fe5b1461275a57600080fd5b3492506000831161276a57600080fd5b600254600160a060020a031683156108fc0284604051600060405180830381858888f19350505050151561279d57600080fd5b6127cd8660006040518059106127b05750595b908082528060200260200182016040525b50600080600080612ded565b91506127d882612d9f565b80548401815590506001604060020a03821660007feef5653f9c567b23a97bcfb111bfa6b076a95be73d85d161b4c57149c77b48018560405190815260200160405180910390a361282b8683858861149e565b5b505050505050565b600154600019015b90565b6001805490818082016128528382614222565b916000526020600020906004020160005b60e06040519081016040528060005b8152600160a060020a033381166020830152604082018a90526001604060020a038916606083015260006080830181905260a0830152871660c09091015291905081518154829060ff191660018360028111156128cb57fe5b021790555060208201518154600160a060020a03919091166101000261010060a860020a03199091161781556040820151816001019080516129119291602001906141a3565b50606082015160028201805467ffffffffffffffff19166001604060020a039290921691909117905560808201518160020160086101000a8154816001604060020a0302191690836001604060020a0316021790555060a0820151600282018054911515608060020a0270ff000000000000000000000000000000001990921691909117905560c0820151600391909101805473ffffffffffffffffffffffffffffffffffffffff1916600160a060020a0390921691909117905550506001604060020a0381167f13e5becd81bd8e4cb84ee96d841c855caac77003482e6a2ef3db83d52a61f0f760405160405180910390a25b9392505050565b600080600080600080600080612a2189612d9f565b8054600182015460028301546003840154929b506001604060020a039182169a5098508082169750604060020a820481169650608060020a820416945060c060020a900460ff16925090505b50919395979092949650565b600080805b845183101561282b576001604060020a03858481518110612a9b57fe5b90602001906020020151169150604060020a858481518110612ab957fe5b90602001906020020151811515612acc57fe5b049050612adb8683838761149e565b5b600190920191612a7e565b5b505050505050565b600254600090819033600160a060020a03908116911614612b1057600080fd5b612b1984612d9f565b915060015b600383015460c060020a900460ff166002811115612b3857fe5b14612b4257600080fd5b6001820154600283018054612bfa926001604060020a03169190602080820201604051908101604052809291908181526020018280548015612bd557602002820191906000526020600020906000905b82829054906101000a90046001604060020a03166001604060020a031681526020019060080190602082600701049283019260010382029150808411612b925790505b505050506003860154600091508190608060020a90046001604060020a031681612ded565b90506110b181610db4565b90506110be8482856130df565b5b5b50505050565b600080805b83518310156110be576001604060020a03848481518110612c3c57fe5b90602001906020020151169150604060020a848481518110612c5a57fe5b90602001906020020151811515612c6d57fe5b049050612c7a8282612af0565b5b600190920191612c1f565b5b50505050565b600080612c9983612d54565b905060009150610dae565b815460ff166002811115612cb457fe5b1415612cc35760009150610dae565b60025b815460ff166002811115612cd657fe5b14612cdd57fe5b6002810154608060020a900460ff1615612cfa5760019150610dae565b6002810154604060020a90046001604060020a03161515612d1e5760009150610dae565b6002810154610dab90604060020a90046001604060020a0316612c8d565b91505b50919050565b600254600160a060020a031681565b6001546000906001604060020a03831610612d6e57600080fd5b600180546001604060020a038416908110612d8557fe5b906000526020600020906004020160005b5090505b919050565b600080546001604060020a03831610612db757600080fd5b600080546001604060020a038416908110612d8557fe5b906000526020600020906004020160005b5090505b919050565b425b90565b600080600088888888888860405160c060020a6001604060020a03881602815260088101868051906020019060200280838360005b83811015612e3b5780820151818401525b602001612e22565b50505050905001856001604060020a03166001604060020a031660c060020a028152600801846001604060020a03166001604060020a031660c060020a028152600801836001604060020a03166001604060020a031660c060020a028152600801826002811115612ea857fe5b60ff167f010000000000000000000000000000000000000000000000000000000000000002815260010196505050505050506040519081900390206000818152600360205260408120549193506001604060020a039091169150811115612f11578092506130d3565b5060008054828252600360205260408220805467ffffffffffffffff19166001604060020a038316179055815490919060018101612f4f83826142e5565b916000526020600020906004020160005b60e060405190810160405280600081526020018d6001604060020a031681526020018c81526020018b6001604060020a031681526020018a6001604060020a03168152602001896001604060020a03168152602001886002811115612fc157fe5b905291905081518155602082015160018201805467ffffffffffffffff19166001604060020a039290921691909117905560408201518160020190805161300c929160200190614317565b50606082015160038201805467ffffffffffffffff19166001604060020a039290921691909117905560808201518160030160086101000a8154816001604060020a0302191690836001604060020a0316021790555060a08201518160030160106101000a8154816001604060020a0302191690836001604060020a0316021790555060c082015160038201805478ff000000000000000000000000000000000000000000000000191660c060020a8360028111156130c757fe5b02179055505050508092505b50509695505050505050565b60008060006130f16001878787613cdc565b9250846001604060020a0316866001604060020a031614156131125761282b565b82151561311e5761282b565b61312786612d9f565b915061313285612d9f565b82549091508390101561314457600080fd5b815483900382558054830181556001604060020a038086169087167feef5653f9c567b23a97bcfb111bfa6b076a95be73d85d161b4c57149c77b48018560405190815260200160405180910390a361319f6000878786613cdc565b505b505050505050565b600080806001604060020a03841615156131c65760009250612147565b6131cf84612d9f565b60018101549092506131e9906001604060020a0316612d54565b905060005b815460ff1660028111156131fe57fe5b141561320c57839250612147565b60025b815460ff16600281111561321f57fe5b1461322657fe5b600182015461323d906001604060020a0316610d02565b151561324b57839250612147565b600382015461326990608060020a90046001604060020a03166131a9565b92505b5050919050565b8060200151600160a060020a031633600160a060020a031614806132ac57508060c00151600160a060020a031633600160a060020a0316145b15156132b757600080fd5b5b50565b60006110b18260006040518059106127b05750595b908082528060200260200182016040525b50600080600080612ded565b90506110be8482856130df565b5b50505050565b600080600061330f86612d9f565b925060146134438460e06040519081016040529081600082015481526020016001820160009054906101000a90046001604060020a03166001604060020a03166001604060020a03168152602001600282018054806020026020016040519081016040528092919081815260200182805480156133dd57602002820191906000526020600020906000905b82829054906101000a90046001604060020a03166001604060020a03168152602001906008019060208260070104928301926001038202915080841161339a5790505b505050918352505060038201546001604060020a038082166020840152604060020a820481166040840152608060020a820416606083015260809091019060c060020a900460ff16600281111561343057fe5b600281111561343b57fe5b905250613d04565b1061344d57600080fd5b6001830154600284018054613505926001604060020a03169190602080820201604051908101604052809291908181526020018280548015610ec057602002820191906000526020600020906000905b82829054906101000a90046001604060020a03166001604060020a031681526020019060080190602082600701049283019260010382029150808411610e7d5790505b505050506003870154600091508190608060020a90046001604060020a031681612ded565b9150613537846000604051805910610f095750595b908082528060200260200182016040525b50600080866000612ded565b905061282b8682876130df565b5b505050505050565b60006135576142d3565b60008061356387612d9f565b60028101549094506014901061357857600080fd5b600284015460010160405180591061358d5750595b908082528060200260200182016040525b509250600091505b600284015482101561361b57600284018054839081106135c257fe5b90600052602060002090600491828204019190066008025b9054906101000a90046001604060020a03168383815181106135f857fe5b6001604060020a039092166020928302909101909101525b6001909101906135a6565b6002840154859084908151811061362e57fe5b6001604060020a03928316602091820290920101526001850154600386015461366a929182169186916000918291608060020a90041681612ded565b905061319f8782886130df565b5b50505050505050565b6000805b8360400151518110156136d657826001604060020a0316846040015182815181106136ac57fe5b906020019060200201516001604060020a031614156136cd578091506136e1565b5b600101613685565b6001604060020a0391505b5092915050565b60006136f26142d3565b6000806136fe87612d9f565b60028101549094508590036040518059106137165750595b908082528060200260200182016040525b509250600091505b60028401548590038210156137a7576002840180548390811061374e57fe5b90600052602060002090600491828204019190066008025b9054906101000a90046001604060020a031683838151811061378457fe5b6001604060020a039092166020928302909101909101525b60019091019061372f565b6001840154600385015461366a916001604060020a039081169186916000918291608060020a9091041681612ded565b905061319f8782886130df565b5b50505050505050565b6000806137fa85612d9f565b9150601461392e8360e06040519081016040529081600082015481526020016001820160009054906101000a90046001604060020a03166001604060020a03166001604060020a03168152602001600282018054806020026020016040519081016040528092919081815260200182805480156133dd57602002820191906000526020600020906000905b82829054906101000a90046001604060020a03166001604060020a03168152602001906008019060208260070104928301926001038202915080841161339a5790505b505050918352505060038201546001604060020a038082166020840152604060020a820481166040840152608060020a820416606083015260809091019060c060020a900460ff16600281111561343057fe5b600281111561343b57fe5b905250613d04565b1061393857600080fd5b6001820154600283018054613b28926001604060020a031691906020808202016040519081016040528092919081815260200182805480156139cb57602002820191906000526020600020906000905b82829054906101000a90046001604060020a03166001604060020a0316815260200190600801906020826007010492830192600103820291508084116139885790505b505050505085613b018660e06040519081016040529081600082015481526020016001820160009054906101000a90046001604060020a03166001604060020a03166001604060020a0316815260200160028201805480602002602001604051908101604052809291908181526020018280548015613a9b57602002820191906000526020600020906000905b82829054906101000a90046001604060020a03166001604060020a031681526020019060080190602082600701049283019260010382029150808411613a585790505b505050918352505060038201546001604060020a038082166020840152604060020a820481166040840152608060020a820416606083015260809091019060c060020a900460ff166002811115613aee57fe5b6002811115613af957fe5b905250613e6f565b613b09612de8565b6003880154910190608060020a90046001604060020a03166000612ded565b9050610b2e8582866130df565b5b5050505050565b60008060025b83516002811115613b5057fe5b14613b5757fe5b82608001516001604060020a03161515613b745760019150610dae565b613b818360800151612d54565b9050610dab8160e06040519081016040528154909190829060ff1660028111156122a457fe5b60028111156122af57fe5b81526020016000820160019054906101000a9004600160a060020a0316600160a060020a0316600160a060020a03168152602001600182018054600181600116156101000203166002900480601f01602080910402602001604051908101604052809291908181526020018280546001816001161561010002031660029004801561237b5780601f106123505761010080835404028352916020019161237b565b820191906000526020600020905b81548152906001019060200180831161235e57829003601f168201915b505050918352505060028201546001604060020a038082166020840152604060020a8204166040830152608060020a900460ff1615156060820152600390910154600160a060020a0316608090910152613b3d565b91505b50919050565b80613cea8585808685613f02565b9050613cf98584868685613f02565b90505b949350505050565b6000808260a001516001604060020a03161515613d245760009150610dae565b613d318360a00151612d9f565b9050613e638160e06040519081016040529081600082015481526020016001820160009054906101000a90046001604060020a03166001604060020a03166001604060020a03168152602001600282018054806020026020016040519081016040528092919081815260200182805480156133dd57602002820191906000526020600020906000905b82829054906101000a90046001604060020a03166001604060020a03168152602001906008019060208260070104928301926001038202915080841161339a5790505b505050918352505060038201546001604060020a038082166020840152604060020a820481166040840152608060020a820416606083015260809091019060c060020a900460ff16600281111561343057fe5b600281111561343b57fe5b905250613d04565b60010191505b50919050565b6000806000613e818460200151612d54565b60028101546001604060020a031693509150600090505b83604001515181101561214757613ec784604001518281518110613eb857fe5b90602001906020020151612d54565b60028101549092506001604060020a031683901115613ef15760028201546001604060020a031692505b5b600101613e98565b5b5050919050565b600080600080866001604060020a0316886001604060020a031614613f2957610100613f2c565b60005b61ffff169250849350613f3e88612d9f565b6001810154909250613f5e908a906001604060020a031689898789614023565b9350600090505b60028201546001604060020a0382161015613fdb57613fd08983600201836001604060020a0316815481101515613f9857fe5b90600052602060002090600491828204019190066008025b9054906101000a90046001604060020a0316898985880160010189614023565b93505b600101613f65565b600382015460006001604060020a039091161115614016576003820154614013908a906001604060020a0316898960ff880189614023565b93505b5b50505095945050505050565b8060008061403088612d54565b6003810154909150600160a060020a03161580159061404f5750600083115b156130d357881561410a576003810154600160a060020a031663d4edf5e5898989898960006040516020015260405160e060020a63ffffffff88160281526001604060020a039586166004820152938516602485015291841660448401529092166064820152608481019190915260a401602060405180830381600087803b15156140d957600080fd5b6102c65a03f115156140ea57600080fd5b50505060405180519250508282111561410257600080fd5b8192506130d3565b6003810154600160a060020a031663ad1483c3898989898960405160e060020a63ffffffff88160281526001604060020a039586166004820152938516602485015291841660448401529092166064820152608481019190915260a401600060405180830381600087803b151561418057600080fd5b6102c65a03f1151561419157600080fd5b5050505b5b5b50509695505050505050565b828054600181600116156101000203166002900490600052602060002090601f016020900481019282601f106141e457805160ff1916838001178555614211565b82800160010185558215614211579182015b828111156142115782518255916020019190600101906141f6565b5b5061421e9291506143e1565b5090565b81548183558181151161424e5760040281600402836000526020600020918201910161424e9190614402565b5b505050565b828054600181600116156101000203166002900490600052602060002090601f016020900481019282601f106141e457805160ff1916838001178555614211565b82800160010185558215614211579182015b828111156142115782518255916020019190600101906141f6565b5b5061421e9291506143e1565b5090565b60206040519081016040526000815290565b81548183558181151161424e5760040281600402836000526020600020918201910161424e9190614486565b5b505050565b828054828255906000526020600020906003016004900481019282156143bf5791602002820160005b8382111561438a57835183826101000a8154816001604060020a0302191690836001604060020a031602179055509260200192600801602081600701049283019260010302614340565b80156143bd5782816101000a8154906001604060020a03021916905560080160208160070104928301926001030261438a565b505b5061421e9291506144ed565b5090565b60206040519081016040526000815290565b611b1791905b8082111561421e57600081556001016143e7565b5090565b90565b611b1791905b8082111561421e57805474ffffffffffffffffffffffffffffffffffffffffff19168155600061443b6001830182614519565b5060028101805470ffffffffffffffffffffffffffffffffff1916905560038101805473ffffffffffffffffffffffffffffffffffffffff19169055600401614408565b5090565b90565b611b1791905b8082111561421e57600080825560018201805467ffffffffffffffff191690556144b96002830182614561565b5060038101805478ffffffffffffffffffffffffffffffffffffffffffffffffff1916905560040161448c565b5090565b90565b611b1791905b8082111561421e57805467ffffffffffffffff191681556001016144f3565b5090565b90565b50805460018160011615610100020316600290046000825580601f1061453f57506132b7565b601f0160209004906000526020600020908101906132b791906143e1565b5b50565b5080546000825560030160049004906000526020600020908101906132b791906143e1565b5b505600a165627a7a723058201ee9b15a418b4b7f48160cb6b0bb6e15816c2277b9b1bb6fa645070634675f160029",
  "source": "pragma solidity ^0.4.11;\n\nimport \"./LiquidPledgingBase.sol\";\n\n\ncontract LiquidPledging is LiquidPledgingBase {\n\n\n//////\n// Constructor\n//////\n\n    // This constructor actualy also calls the constructor for the\n    // `LiquidPledgingBase` contract\n    function LiquidPledging(address _vault) LiquidPledgingBase(_vault) {\n    }\n\n    /// @notice This is how value enters into the system which creates notes. The\n    ///  token of value goes into the vault and then the amount in the Note\n    /// relevant to this donor without delegates is increased.\n    ///  After that, a normal transfer is done to the idReceiver.\n    /// @param idDonor Identifier of the donor thats donating.\n    /// @param idReceiver To whom it's transfered. Can be the same donor, another\n    ///  donor, a delegate or a project\n    function donate(uint64 idDonor, uint64 idReceiver) payable {// TODO change to `pledge()`\n        if (idDonor == 0) {\n            idDonor = addDonor('', 259200, ILiquidPledgingPlugin(0x0)); // default to 3 day commitTime\n        }\n\n        NoteManager storage sender = findManager(idDonor);\n\n        checkManagerOwner(sender);\n\n        require(sender.managerType == NoteManagerType.Donor);\n\n        uint amount = msg.value;\n\n        require(amount > 0);\n\n        vault.transfer(amount); // transfers the baseToken to the Vault\n        uint64 idNote = findNote(\n            idDonor,\n            new uint64[](0), //what is new\n            0,\n            0,\n            0,\n            PaymentState.NotPaid);\n\n\n        Note storage nTo = findNote(idNote);\n        nTo.amount += amount;\n\n        Transfer(0, idNote, amount);\n\n        transfer(idDonor, idNote, amount, idReceiver);\n    }\n\n\n    /// @notice This is the main function to move value from one Note to the other\n    /// @param idSender ID of the donor, delegate or project manager that is transfering\n    ///  the funds from Note to Note. This manager must have permisions to move the value\n    /// @param idNote Id of the note that's moving the value\n    /// @param amount Quantity of value that's being moved\n    /// @param idReceiver Destination of the value, can be a donor sending to a donor or\n    ///  a delegate, a delegate to another delegate or a project to precommit it to that project\n    function transfer(uint64 idSender, uint64 idNote, uint amount, uint64 idReceiver) {\n\n        idNote = normalizeNote(idNote);\n\n        Note storage n = findNote(idNote);\n        NoteManager storage receiver = findManager(idReceiver);\n        NoteManager storage sender = findManager(idSender);\n\n        checkManagerOwner(sender);\n        require(n.paymentState == PaymentState.NotPaid);\n\n        // If the sender is the owner\n        if (n.owner == idSender) {\n            if (receiver.managerType == NoteManagerType.Donor) {\n                transferOwnershipToDonor(idNote, amount, idReceiver);\n            } else if (receiver.managerType == NoteManagerType.Project) {\n                transferOwnershipToProject(idNote, amount, idReceiver);\n            } else if (receiver.managerType == NoteManagerType.Delegate) {\n                appendDelegate(idNote, amount, idReceiver);\n            } else {\n                assert(false);\n            }\n            return;\n        }\n\n        // If the sender is a delegate\n        uint senderDIdx = getDelegateIdx(n, idSender);\n        if (senderDIdx != NOTFOUND) {\n\n            // If the receiver is another donor\n            if (receiver.managerType == NoteManagerType.Donor) {\n                // Only accept to change to the original donor to remove all delegates\n                assert(n.owner == idReceiver);\n                undelegate(idNote, amount, n.delegationChain.length);\n                return;\n            }\n\n            // If the receiver is another delegate\n            if (receiver.managerType == NoteManagerType.Delegate) {\n                uint receiverDIdx = getDelegateIdx(n, idReceiver);\n\n                // If the receiver is not in the delegate list\n                if (receiverDIdx == NOTFOUND) {\n                    undelegate(idNote, amount, n.delegationChain.length - senderDIdx - 1);\n                    appendDelegate(idNote, amount, idReceiver);\n\n                // If the receiver is already part of the delegate chain and is\n                // after the sender, then all of the other delegates after the sender are\n                // removed and the receiver is appended at the end of the delegation chain\n                } else if (receiverDIdx > senderDIdx) {\n                    undelegate(idNote, amount, n.delegationChain.length - senderDIdx - 1);\n                    appendDelegate(idNote, amount, idReceiver);\n\n                // If the receiver is already part of the delegate chain and is\n                // before the sender, then the sender and all of the other\n                // delegates after the RECEIVER are revomved from the chain,\n                // this is interesting because the delegate undelegates from the\n                // delegates that delegated to this delegate... game theory issues? should this be allowed\n                } else if (receiverDIdx <= senderDIdx) {\n                    undelegate(idNote, amount, n.delegationChain.length - receiverDIdx -1);\n                }\n                return;\n            }\n\n            // If the delegate wants to support a project, they undelegate all\n            // the delegates after them in the chain and choose a project\n            if (receiver.managerType == NoteManagerType.Project) {\n                undelegate(idNote, amount, n.delegationChain.length - senderDIdx - 1);\n                proposeAssignProject(idNote, amount, idReceiver);\n                return;\n            }\n        }\n        assert(false);  // It is not the owner nor any delegate.\n    }\n\n\n    /// @notice This method is used to withdraw value from the system. This can be used\n    ///  by the donors to avoid committing the donation or by project manager to use\n    ///  the Ether.\n    /// @param idNote Id of the note that wants to be withdrawed.\n    /// @param amount Quantity of Ether that wants to be withdrawed.\n    function withdraw(uint64 idNote, uint amount) {\n\n        idNote = normalizeNote(idNote);\n\n        Note storage n = findNote(idNote);\n\n        require(n.paymentState == PaymentState.NotPaid);\n\n        NoteManager storage owner = findManager(n.owner);\n\n        checkManagerOwner(owner);\n\n        uint64 idNewNote = findNote(\n            n.owner,\n            n.delegationChain,\n            0,\n            0,\n            n.oldNote,\n            PaymentState.Paying\n        );\n\n        doTransfer(idNote, idNewNote, amount);\n\n        vault.authorizePayment(bytes32(idNewNote), owner.addr, amount);\n    }\n\n    /// @notice Method called by the vault to confirm a payment.\n    /// @param idNote Id of the note that wants to be withdrawed.\n    /// @param amount Quantity of Ether that wants to be withdrawed.\n    function confirmPayment(uint64 idNote, uint amount) onlyVault {\n        Note storage n = findNote(idNote);\n\n        require(n.paymentState == PaymentState.Paying);\n\n        // Check the project is not canceled in the while.\n        require(getOldestNoteNotCanceled(idNote) == idNote);\n\n        uint64 idNewNote = findNote(\n            n.owner,\n            n.delegationChain,\n            0,\n            0,\n            n.oldNote,\n            PaymentState.Paid\n        );\n\n        doTransfer(idNote, idNewNote, amount);\n    }\n\n    /// @notice Method called by the vault to cancel a payment.\n    /// @param idNote Id of the note that wants to be canceled for withdraw.\n    /// @param amount Quantity of Ether that wants to be rolled back.\n    function cancelPayment(uint64 idNote, uint amount) onlyVault {\n        Note storage n = findNote(idNote);\n\n        require(n.paymentState == PaymentState.Paying); //TODO change to revert\n\n        // When a payment is cacnceled, never is assigned to a project.\n        uint64 oldNote = findNote(\n            n.owner,\n            n.delegationChain,\n            0,\n            0,\n            n.oldNote,\n            PaymentState.NotPaid\n        );\n\n        oldNote = normalizeNote(oldNote);\n\n        doTransfer(idNote, oldNote, amount);\n    }\n\n    /// @notice Method called to cancel this project.\n    /// @param idProject Id of the projct that wants to be canceled.\n    function cancelProject(uint64 idProject) {\n        NoteManager storage project = findManager(idProject);\n        checkManagerOwner(project);\n        project.canceled = true;\n    }\n\n\n    function cancelNote(uint64 idNote, uint amount) {\n        idNote = normalizeNote(idNote);\n\n        Note storage n = findNote(idNote);\n\n        NoteManager storage m = findManager(n.owner);\n        checkManagerOwner(m);\n\n        doTransfer(idNote, n.oldNote, amount);\n    }\n\n\n////////\n// Multi note methods\n////////\n\n    // This set of functions makes moving a lot of notes around much more\n    // efficient (saves gas) than calling these functions in series\n    uint constant D64 = 0x10000000000000000;\n    function mTransfer(uint64 idSender, uint[] notesAmounts, uint64 idReceiver) {\n        for (uint i = 0; i < notesAmounts.length; i++ ) {\n            uint64 idNote = uint64( notesAmounts[i] & (D64-1) );\n            uint amount = notesAmounts[i] / D64;\n\n            transfer(idSender, idNote, amount, idReceiver);\n        }\n    }\n\n    function mWithdraw(uint[] notesAmounts) {\n        for (uint i = 0; i < notesAmounts.length; i++ ) {\n            uint64 idNote = uint64( notesAmounts[i] & (D64-1) );\n            uint amount = notesAmounts[i] / D64;\n\n            withdraw(idNote, amount);\n        }\n    }\n\n    function mConfirmPayment(uint[] notesAmounts) {\n        for (uint i = 0; i < notesAmounts.length; i++ ) {\n            uint64 idNote = uint64( notesAmounts[i] & (D64-1) );\n            uint amount = notesAmounts[i] / D64;\n\n            confirmPayment(idNote, amount);\n        }\n    }\n\n    function mCancelPayment(uint[] notesAmounts) {\n        for (uint i = 0; i < notesAmounts.length; i++ ) {\n            uint64 idNote = uint64( notesAmounts[i] & (D64-1) );\n            uint amount = notesAmounts[i] / D64;\n\n            cancelPayment(idNote, amount);\n        }\n    }\n\n    function mNormalizeNote(uint[] notes) returns(uint64) {\n        for (uint i = 0; i < notes.length; i++ ) {\n            uint64 idNote = uint64( notes[i] & (D64-1) );\n\n            normalizeNote(idNote);\n        }\n    }\n\n////////\n// Private methods\n///////\n\n    // this function is obvious, but it can also be called to undelegate everyone\n    // by setting your self as teh idReceiver\n    function transferOwnershipToProject(uint64 idNote, uint amount, uint64 idReceiver) internal  {\n        Note storage n = findNote(idNote);\n\n        require(getNoteLevel(n) < MAX_INTERPROJECT_LEVEL);\n        uint64 oldNote = findNote(\n            n.owner,\n            n.delegationChain,\n            0,\n            0,\n            n.oldNote,\n            PaymentState.NotPaid);\n        uint64 toNote = findNote(\n            idReceiver,\n            new uint64[](0),\n            0,\n            0,\n            oldNote,\n            PaymentState.NotPaid);\n        doTransfer(idNote, toNote, amount);\n    }\n\n    function transferOwnershipToDonor(uint64 idNote, uint amount, uint64 idReceiver) internal  {\n        uint64 toNote = findNote(\n                idReceiver,\n                new uint64[](0),\n                0,\n                0,\n                0,\n                PaymentState.NotPaid);\n        doTransfer(idNote, toNote, amount);\n    }\n\n    function appendDelegate(uint64 idNote, uint amount, uint64 idReceiver) internal  {\n        Note storage n= findNote(idNote);\n\n        require(n.delegationChain.length < MAX_DELEGATES); //TODO change to revert and say the error\n        uint64[] memory newDelegationChain = new uint64[](n.delegationChain.length + 1);\n        for (uint i=0; i<n.delegationChain.length; i++) {\n            newDelegationChain[i] = n.delegationChain[i];\n        }\n\n        // Make the last item in the array the idReceiver\n        newDelegationChain[n.delegationChain.length] = idReceiver;\n\n        uint64 toNote = findNote(\n                n.owner,\n                newDelegationChain,\n                0,\n                0,\n                n.oldNote,\n                PaymentState.NotPaid);\n        doTransfer(idNote, toNote, amount);\n    }\n\n    /// @param q Unmber of undelegations\n    function undelegate(uint64 idNote, uint amount, uint q) internal {\n        Note storage n = findNote(idNote);\n        uint64[] memory newDelegationChain = new uint64[](n.delegationChain.length - q);\n        for (uint i=0; i<n.delegationChain.length - q; i++) {\n            newDelegationChain[i] = n.delegationChain[i];\n        }\n        uint64 toNote = findNote(\n                n.owner,\n                newDelegationChain,\n                0,\n                0,\n                n.oldNote,\n                PaymentState.NotPaid);\n        doTransfer(idNote, toNote, amount);\n    }\n\n\n    function proposeAssignProject(uint64 idNote, uint amount, uint64 idReceiver) internal {// Todo rename\n        Note storage n = findNote(idNote);\n\n        require(getNoteLevel(n) < MAX_SUBPROJECT_LEVEL);\n\n        uint64 toNote = findNote(\n                n.owner,\n                n.delegationChain,\n                idReceiver,\n                uint64(getTime() + maxCommitTime(n)),\n                n.oldNote,\n                PaymentState.NotPaid);\n        doTransfer(idNote, toNote, amount);\n    }\n\n    function doTransfer(uint64 from, uint64 to, uint _amount) internal {\n        uint amount = callPlugins(true, from, to, _amount);\n        if (from == to) return;\n        if (amount == 0) return;\n        Note storage nFrom = findNote(from);\n        Note storage nTo = findNote(to);\n        require(nFrom.amount >= amount);\n        nFrom.amount -= amount;\n        nTo.amount += amount;\n\n        Transfer(from, to, amount);\n        callPlugins(false, from, to, amount);\n    }\n\n    // This function does 2 things, #1: it checks to make sure that the pledges are correct\n    // if the a pledged project has already been commited then it changes the owner\n    // to be the proposed project (Note that the UI will have to read the commit time and manually\n    // do what this function does to the note for the end user at the expiration of the committime)\n    // #2: It checks to make sure that if there has been a cancellation in the chain of projects,\n    // then it adjusts the note's owner appropriately.\n    // This call can be called from any body at any time on any node. In general it can be called\n    // to froce the calls of the affected plugins.\n    function normalizeNote(uint64 idNote) returns(uint64) {\n        Note storage n = findNote(idNote);\n\n        // Check to make sure this note hasnt already been used or is in the process of being used\n        if (n.paymentState != PaymentState.NotPaid) return idNote;\n\n        // First send to a project if it's proposed and commited\n        if ((n.proposedProject > 0) && ( getTime() > n.commitTime)) {\n            uint64 oldNote = findNote(\n                n.owner,\n                n.delegationChain,\n                0,\n                0,\n                n.oldNote,\n                PaymentState.NotPaid);\n            uint64 toNote = findNote(\n                n.proposedProject,\n                new uint64[](0),\n                0,\n                0,\n                oldNote,\n                PaymentState.NotPaid);\n            doTransfer(idNote, toNote, n.amount);\n            idNote = toNote;\n            n = findNote(idNote);\n        }\n\n        toNote = getOldestNoteNotCanceled(idNote);// TODO toNote is note defined\n        if (toNote != idNote) {\n            doTransfer(idNote, toNote, n.amount);\n        }\n\n        return toNote;\n    }\n\n/////////////\n// Plugins\n/////////////\n\n    function callPlugin(bool before, uint64 managerId, uint64 fromNote, uint64 toNote, uint64 context, uint amount) internal returns (uint allowedAmount) {\n        uint newAmount;\n        allowedAmount = amount;\n        NoteManager storage manager = findManager(managerId);\n        if ((address(manager.plugin) != 0) && (allowedAmount > 0)) {\n            if (before) {\n                newAmount = manager.plugin.beforeTransfer(managerId, fromNote, toNote, context, amount);\n                require(newAmount <= allowedAmount);\n                allowedAmount = newAmount;\n            } else {\n                manager.plugin.afterTransfer(managerId, fromNote, toNote, context, amount);\n            }\n        }\n    }\n\n    function callPluginsNote(bool before, uint64 idNote, uint64 fromNote, uint64 toNote, uint amount) internal returns (uint allowedAmount) {\n        uint64 offset = idNote == fromNote ? 0 : 256;\n        allowedAmount = amount;\n        Note storage n = findNote(idNote);\n\n        allowedAmount = callPlugin(before, n.owner, fromNote, toNote, offset, allowedAmount);\n\n        for (uint64 i=0; i<n.delegationChain.length; i++) {\n            allowedAmount = callPlugin(before, n.delegationChain[i], fromNote, toNote, offset + i+1, allowedAmount);\n        }\n\n        if (n.proposedProject > 0) {\n            allowedAmount = callPlugin(before, n.proposedProject, fromNote, toNote, offset + 255, allowedAmount);\n        }\n    }\n\n    function callPlugins(bool before, uint64 fromNote, uint64 toNote, uint amount) internal returns (uint allowedAmount) {\n        allowedAmount = amount;\n\n        allowedAmount = callPluginsNote(before, fromNote, fromNote, toNote, allowedAmount);\n        allowedAmount = callPluginsNote(before, toNote, fromNote, toNote, allowedAmount);\n    }\n\n/////////////\n// Test functions\n/////////////\n\n    function getTime() internal returns (uint) {\n        return now;\n    }\n\n    event Transfer(uint64 indexed from, uint64 indexed to, uint amount);\n\n}\n",
  "sourcePath": "/Users/rjewing/code/giveth/lpp-campaign/node_modules/liquidpledging/contracts/LiquidPledging.sol",
  "schemaVersion": "1.0.0",
  "updatedAt": "2017-10-03T00:54:46.746Z"
}