{
  "contractName": "LPPCampaign",
  "abi": [
    {
      "constant": true,
      "inputs": [],
      "name": "status",
      "outputs": [
        {
          "name": "",
          "type": "uint8"
        }
      ],
      "payable": false,
      "type": "function"
    },
    {
      "constant": true,
      "inputs": [],
      "name": "newReviewer",
      "outputs": [
        {
          "name": "",
          "type": "address"
        }
      ],
      "payable": false,
      "type": "function"
    },
    {
      "constant": true,
      "inputs": [],
      "name": "liquidPledging",
      "outputs": [
        {
          "name": "",
          "type": "address"
        }
      ],
      "payable": false,
      "type": "function"
    },
    {
      "constant": false,
      "inputs": [],
      "name": "acceptOwnership",
      "outputs": [],
      "payable": false,
      "type": "function"
    },
    {
      "constant": false,
      "inputs": [],
      "name": "acceptNewReviewer",
      "outputs": [],
      "payable": false,
      "type": "function"
    },
    {
      "constant": false,
      "inputs": [
        {
          "name": "_newReviewer",
          "type": "address"
        }
      ],
      "name": "changeReviewer",
      "outputs": [],
      "payable": false,
      "type": "function"
    },
    {
      "constant": true,
      "inputs": [],
      "name": "owner",
      "outputs": [
        {
          "name": "",
          "type": "address"
        }
      ],
      "payable": false,
      "type": "function"
    },
    {
      "constant": true,
      "inputs": [],
      "name": "idProject",
      "outputs": [
        {
          "name": "",
          "type": "uint64"
        }
      ],
      "payable": false,
      "type": "function"
    },
    {
      "constant": false,
      "inputs": [],
      "name": "cancelCampaign",
      "outputs": [],
      "payable": false,
      "type": "function"
    },
    {
      "constant": true,
      "inputs": [],
      "name": "reviewer",
      "outputs": [
        {
          "name": "",
          "type": "address"
        }
      ],
      "payable": false,
      "type": "function"
    },
    {
      "constant": false,
      "inputs": [
        {
          "name": "_newOwner",
          "type": "address"
        }
      ],
      "name": "changeOwner",
      "outputs": [],
      "payable": false,
      "type": "function"
    },
    {
      "constant": false,
      "inputs": [
        {
          "name": "noteManager",
          "type": "uint64"
        },
        {
          "name": "noteFrom",
          "type": "uint64"
        },
        {
          "name": "noteTo",
          "type": "uint64"
        },
        {
          "name": "context",
          "type": "uint64"
        },
        {
          "name": "amount",
          "type": "uint256"
        }
      ],
      "name": "afterTransfer",
      "outputs": [],
      "payable": false,
      "type": "function"
    },
    {
      "constant": false,
      "inputs": [
        {
          "name": "noteManager",
          "type": "uint64"
        },
        {
          "name": "noteFrom",
          "type": "uint64"
        },
        {
          "name": "noteTo",
          "type": "uint64"
        },
        {
          "name": "context",
          "type": "uint64"
        },
        {
          "name": "amount",
          "type": "uint256"
        }
      ],
      "name": "beforeTransfer",
      "outputs": [
        {
          "name": "maxAllowed",
          "type": "uint256"
        }
      ],
      "payable": false,
      "type": "function"
    },
    {
      "constant": true,
      "inputs": [],
      "name": "newOwner",
      "outputs": [
        {
          "name": "",
          "type": "address"
        }
      ],
      "payable": false,
      "type": "function"
    },
    {
      "inputs": [
        {
          "name": "_liquidPledging",
          "type": "address"
        },
        {
          "name": "name",
          "type": "string"
        },
        {
          "name": "parentProject",
          "type": "uint64"
        },
        {
          "name": "_reviewer",
          "type": "address"
        }
      ],
      "payable": false,
      "type": "constructor"
    },
    {
      "anonymous": false,
      "inputs": [
        {
          "indexed": true,
          "name": "liquidPledging",
          "type": "address"
        }
      ],
      "name": "CampaignCanceled",
      "type": "event"
    }
  ],
  "bytecode": "0x6060604052341561000f57600080fd5b60405161095a38038061095a8339810160405280805191906020018051820191906020018051919060200180519150505b5b60008054600160a060020a03191633600160a060020a03161790555b60028054600160a060020a031916600160a060020a0386811691909117918290551663b9d82bd784308560008281604051602001526040517c010000000000000000000000000000000000000000000000000000000063ffffffff8816028152600160a060020a0380861660248301526001604060020a038086166044840152841660648301528216608482015260a06004820190815290819060a40187818151815260200191508051906020019080838360005b8381101561012b5780820151818401525b602001610112565b50505050905090810190601f1680156101585780820380516001836020036101000a031916815260200191505b509650505050505050602060405180830381600087803b151561017a57600080fd5b6102c65a03f1151561018b57600080fd5b5050506040518051600280546001604060020a03909216740100000000000000000000000000000000000000000260a060020a60e060020a03199092169190911790555060038054600160a060020a038316600160a060020a03199091161790555b505050505b610759806102016000396000f300606060405236156100b45763ffffffff60e060020a600035041663200d2ed281146100b95780634ce3791e146100f057806374041d1f1461011f57806379ba50971461014e5780637ec4c705146101635780638652d8d6146101785780638da5cb5b1461019957806394edc359146101c8578063980e7844146101f8578063a54044f81461020d578063a6f9dae11461023c578063ad1483c31461025d578063d4edf5e514610294578063d4ee1d90146102db575b600080fd5b34156100c457600080fd5b6100cc61030a565b604051808260018111156100dc57fe5b60ff16815260200191505060405180910390f35b34156100fb57600080fd5b61010361031a565b604051600160a060020a03909116815260200160405180910390f35b341561012a57600080fd5b610103610329565b604051600160a060020a03909116815260200160405180910390f35b341561015957600080fd5b610161610338565b005b341561016e57600080fd5b610161610382565b005b341561018357600080fd5b610161600160a060020a03600435166103d2565b005b34156101a457600080fd5b61010361041a565b604051600160a060020a03909116815260200160405180910390f35b34156101d357600080fd5b6101db610429565b60405167ffffffffffffffff909116815260200160405180910390f35b341561020357600080fd5b610161610440565b005b341561021857600080fd5b61010361057a565b604051600160a060020a03909116815260200160405180910390f35b341561024757600080fd5b610161600160a060020a0360043516610589565b005b341561026857600080fd5b61016167ffffffffffffffff600435811690602435811690604435811690606435166084356105d1565b005b341561029f57600080fd5b6102c967ffffffffffffffff600435811690602435811690604435811690606435166084356105d9565b60405190815260200160405180910390f35b34156102e657600080fd5b61010361071e565b604051600160a060020a03909116815260200160405180910390f35b60045460a060020a900460ff1681565b600454600160a060020a031681565b600254600160a060020a031681565b60015433600160a060020a039081169116141561037f576001546000805473ffffffffffffffffffffffffffffffffffffffff1916600160a060020a039092169190911790555b5b565b60045433600160a060020a0390811691161461039d57600080fd5b600480546003805473ffffffffffffffffffffffffffffffffffffffff19908116600160a060020a038416179091551690555b565b60035433600160a060020a039081169116146103ed57600080fd5b6004805473ffffffffffffffffffffffffffffffffffffffff1916600160a060020a0383161790555b5b50565b600054600160a060020a031681565b60025460a060020a900467ffffffffffffffff1681565b60005433600160a060020a039081169116148061046b575060035433600160a060020a039081169116145b151561047657600080fd5b60005b60045460a060020a900460ff16600181111561049157fe5b1461049b57600080fd5b600254600160a060020a0381169063796d56549060a060020a900467ffffffffffffffff1660405160e060020a63ffffffff841602815267ffffffffffffffff9091166004820152602401600060405180830381600087803b15156104ff57600080fd5b6102c65a03f1151561051057600080fd5b5050600480546001925074ff0000000000000000000000000000000000000000191660a060020a835b0217905550600254600160a060020a03167f3be3cf8b79824600b33b84642199163dc824bc8afdc691d0bcd8a849e39f92fc60405160405180910390a25b5b565b600354600160a060020a031681565b60005433600160a060020a039081169116146105a457600080fd5b6001805473ffffffffffffffffffffffffffffffffffffffff1916600160a060020a0383161790555b5b50565b5b5050505050565b600254600090819033600160a060020a039081169116146105f957600080fd5b600254600160a060020a031663cb9123ff87600060405160e0015260405160e060020a63ffffffff841602815267ffffffffffffffff909116600482015260240160e060405180830381600087803b151561065357600080fd5b6102c65a03f1151561066457600080fd5b5050506040518051906020018051906020018051906020018051906020018051906020018051906020018051905050505093505050506101ff8467ffffffffffffffff1614806106e057506101008467ffffffffffffffff161480156106e0575060025467ffffffffffffffff82811660a060020a9092041614155b5b1561070f5760005b60045460a060020a900460ff16600181111561070157fe5b1461070f5760009150610714565b5b8291505b5095945050505050565b600154600160a060020a0316815600a165627a7a72305820aba9d4dd1e546dc6ed1f481a173e6ef02ac7fe1dda2d353178ccbc7f1db526480029",
  "source": "pragma solidity ^0.4.13;\n\nimport \"../node_modules/liquidpledging/contracts/LiquidPledging.sol\";\nimport \"./Owned.sol\";\n\ncontract LPPCampaign is Owned {\n    uint constant FROM_OWNER = 0;\n    uint constant FROM_PROPOSEDPROJECT = 255;\n    uint constant TO_OWNER = 256;\n    uint constant TO_PROPOSEDPROJECT = 511;\n\n    LiquidPledging public liquidPledging;\n    uint64 public idProject;\n    address public reviewer;\n    address public newReviewer;\n    CampaignStatus public status;\n\n    enum CampaignStatus { Active, Canceled }\n\n    event CampaignCanceled(address indexed liquidPledging);\n\n    function LPPCampaign(LiquidPledging _liquidPledging, string name, uint64 parentProject, address _reviewer) {\n        liquidPledging = _liquidPledging;\n        idProject = liquidPledging.addProject(name, address(this), parentProject, 0, ILiquidPledgingPlugin(this));\n        reviewer = _reviewer;\n    }\n\n    modifier onlyReviewer() {\n        require(msg.sender == reviewer);\n        _;\n    }\n\n    modifier onlyOwnerOrReviewer() {\n        require( msg.sender == owner || msg.sender == reviewer );\n        _;\n    }\n\n    function changeReviewer(address _newReviewer) onlyReviewer {\n        newReviewer = _newReviewer;\n    }\n\n    function acceptNewReviewer() {\n        require(newReviewer == msg.sender);\n        reviewer = newReviewer;\n        newReviewer = 0;\n    }\n\n    function beforeTransfer(uint64 noteManager, uint64 noteFrom, uint64 noteTo, uint64 context, uint amount) returns (uint maxAllowed) {\n        require(msg.sender == address(liquidPledging));\n        var (, , , fromProposedProject , , , ) = liquidPledging.getNote(noteFrom);\n        // If I'm the proposed recipient of delegated funds or funds are being directly transferred to me, ensure the I am still active\n        if (   (context == TO_PROPOSEDPROJECT)\n            || (   (context == TO_OWNER)\n                && (fromProposedProject != idProject)))\n        {\n            if (status != CampaignStatus.Active) return 0;\n        }\n        return amount;\n    }\n\n    function afterTransfer(uint64 noteManager, uint64 noteFrom, uint64 noteTo, uint64 context, uint amount) {\n        // do nothing\n    }\n\n\n    function cancelCampaign() onlyOwnerOrReviewer {\n        require( status == CampaignStatus.Active );\n\n        liquidPledging.cancelProject(idProject);\n\n        status = CampaignStatus.Canceled;\n        CampaignCanceled(address(liquidPledging));\n    }\n}\n",
  "sourcePath": "/Users/rjewing/code/giveth/lpp-campaign/contracts/LPPCampaign.sol",
  "schemaVersion": "1.0.0",
  "updatedAt": "2017-10-03T00:54:46.745Z"
}