{
  "contractName": "Owned",
  "abi": [
    {
      "constant": false,
      "inputs": [],
      "name": "acceptOwnership",
      "outputs": [],
      "payable": false,
      "type": "function"
    },
    {
      "constant": true,
      "inputs": [],
      "name": "owner",
      "outputs": [
        {
          "name": "",
          "type": "address"
        }
      ],
      "payable": false,
      "type": "function"
    },
    {
      "constant": false,
      "inputs": [
        {
          "name": "_newOwner",
          "type": "address"
        }
      ],
      "name": "changeOwner",
      "outputs": [],
      "payable": false,
      "type": "function"
    },
    {
      "constant": true,
      "inputs": [],
      "name": "newOwner",
      "outputs": [
        {
          "name": "",
          "type": "address"
        }
      ],
      "payable": false,
      "type": "function"
    },
    {
      "inputs": [],
      "payable": false,
      "type": "constructor"
    }
  ],
  "bytecode": "0x6060604052341561000f57600080fd5b5b60008054600160a060020a03191633600160a060020a03161790555b5b6101ce8061003c6000396000f300606060405263ffffffff7c010000000000000000000000000000000000000000000000000000000060003504166379ba5097811461005e5780638da5cb5b14610073578063a6f9dae1146100a2578063d4ee1d90146100c3575b600080fd5b341561006957600080fd5b6100716100f2565b005b341561007e57600080fd5b61008661013c565b604051600160a060020a03909116815260200160405180910390f35b34156100ad57600080fd5b610071600160a060020a036004351661014b565b005b34156100ce57600080fd5b610086610193565b604051600160a060020a03909116815260200160405180910390f35b60015433600160a060020a0390811691161415610139576001546000805473ffffffffffffffffffffffffffffffffffffffff1916600160a060020a039092169190911790555b5b565b600054600160a060020a031681565b60005433600160a060020a0390811691161461016657600080fd5b6001805473ffffffffffffffffffffffffffffffffffffffff1916600160a060020a0383161790555b5b50565b600154600160a060020a0316815600a165627a7a7230582037d696cae20fb82520132452fd600b403aa7336e4f83b8a33be1aba4db0f92580029",
  "source": "pragma solidity ^0.4.13;\n\n\n/// @dev `Owned` is a base level contract that assigns an `owner` that can be\n///  later changed\ncontract Owned {\n\n    /// @dev `owner` is the only address that can call a function with this\n    /// modifier\n    modifier onlyOwner() {\n        require(msg.sender == owner);\n        _;\n    }\n\n    address public owner;\n\n    /// @notice The Constructor assigns the account deploying the contract to be\n    ///  the `owner`\n    function Owned() {\n        owner = msg.sender;\n    }\n\n    address public newOwner;\n\n    /// @notice `owner` can step down and assign some other address to this role\n    ///  but after this function is called the current owner still has ownership\n    ///  powers in this contract; change of ownership is a 2 step process\n    /// @param _newOwner The address of the new owner. A simple contract with\n    ///  the abilitiy to accept ownership but the inability to do anything else\n    ///  can be used to create an unowned contract to achieve decentralization\n    function changeOwner(address _newOwner) onlyOwner {\n        newOwner = _newOwner;\n    }\n\n    /// @notice `newOwner` can accept ownership over this contract \n    function acceptOwnership() {\n        if (msg.sender == newOwner) {\n            owner = newOwner;\n        }\n    }\n}\n",
  "sourcePath": "/Users/rjewing/code/giveth/lpp-campaign/contracts/Owned.sol",
  "schemaVersion": "1.0.0",
  "updatedAt": "2017-10-03T00:54:46.746Z"
}